{
  "contractName": "ques",
  "abi": [
    {
      "inputs": [],
      "stateMutability": "nonpayable",
      "type": "constructor"
    },
    {
      "inputs": [],
      "name": "owner",
      "outputs": [
        {
          "internalType": "address",
          "name": "",
          "type": "address"
        }
      ],
      "stateMutability": "view",
      "type": "function"
    },
    {
      "inputs": [
        {
          "internalType": "uint256",
          "name": "_number",
          "type": "uint256"
        }
      ],
      "name": "set",
      "outputs": [],
      "stateMutability": "nonpayable",
      "type": "function"
    },
    {
      "inputs": [],
      "name": "get",
      "outputs": [
        {
          "internalType": "uint256",
          "name": "",
          "type": "uint256"
        }
      ],
      "stateMutability": "view",
      "type": "function"
    }
  ],
  "bytecode": "0x608060405233600160006101000a81548173ffffffffffffffffffffffffffffffffffffffff021916908373ffffffffffffffffffffffffffffffffffffffff16021790555034801561005157600080fd5b5033600160006101000a81548173ffffffffffffffffffffffffffffffffffffffff021916908373ffffffffffffffffffffffffffffffffffffffff1602179055506101fb806100a26000396000f3fe608060405234801561001057600080fd5b50600436106100415760003560e01c806360fe47b1146100465780636d4ce63c146100625780638da5cb5b14610080575b600080fd5b610060600480360381019061005b9190610112565b61009e565b005b61006a6100a8565b604051610077919061014e565b60405180910390f35b6100886100b1565b60405161009591906101aa565b60405180910390f35b8060008190555050565b60008054905090565b600160009054906101000a900473ffffffffffffffffffffffffffffffffffffffff1681565b600080fd5b6000819050919050565b6100ef816100dc565b81146100fa57600080fd5b50565b60008135905061010c816100e6565b92915050565b600060208284031215610128576101276100d7565b5b6000610136848285016100fd565b91505092915050565b610148816100dc565b82525050565b6000602082019050610163600083018461013f565b92915050565b600073ffffffffffffffffffffffffffffffffffffffff82169050919050565b600061019482610169565b9050919050565b6101a481610189565b82525050565b60006020820190506101bf600083018461019b565b9291505056fea2646970667358221220a14bb1b20bb61e58ee7a8b2df4123615e498c9382dea4d11f17ca9089968818b64736f6c63430008110033",
  "immutableReferences": {},
  "source": "\r\n// SPDX-License-Identifier: MIT\r\n// compiler version must be greater than or equal to 0.8.17 and less than 0.9.0\r\npragma solidity ^0.8.17;\r\ncontract ques\r\n{\r\n    uint number;\r\n     address public owner = msg.sender;\r\n    constructor(){\r\n        owner = msg.sender;\r\n    }\r\n    modifier access(address _accountHolder)\r\n    {\r\n        require(msg.sender==_accountHolder,\"Sender not authorized\");\r\n        _;\r\n    }\r\n    function set(uint _number) public\r\n    {\r\n        number=_number;\r\n    }\r\n    function get() public view returns(uint)\r\n    {\r\n        return number;\r\n    }\r\n}",
  "sourcePath": "C:\\Users\\YASH GARG\\Desktop\\Blockchain\\contracts\\ques.sol",
  "compiler": {
    "name": "solc",
    "version": "0.8.17+commit.8df45f5f.Emscripten.clang"
  },
  "schemaVersion": "3.4.11",
  "updatedAt": "2023-02-11T06:37:54.738Z",
  "devdoc": {
    "kind": "dev",
    "methods": {},
    "version": 1
  },
  "userdoc": {
    "kind": "user",
    "methods": {},
    "version": 1
  }
}